:020000001A28BC
:100008007E14803120007F08F0000B1103102200BD
:100018000E1C0314031C132822000E14152822009A
:100028000E1070082000FF007E1009001B287E10AB
:1000380020001E283B3021008C003E308E00991491
:10004800190887393838990022000E1021009512B6
:100058009511073095048B168B1722000C15A330C9
:10006800F1005530890B3628F10B362800002200A4
:100078000C11A330F1005530890B4028F10B4028B2
:04008800000031281B
:020000040001F9
:04000E00E4FFFFFF0D
:00000001FF
